:100000000C9418050C9435050C9450050C9435058A
:100010000C9435050C9435050C9435050C94350578
:100020000C9435050C9435050C94C81E0C943505BC
:100030000C9435050C9435050C9435050C94350558
:100040000C9435050C9435050C9435050C94350548
:100050000C94350553746174696300466C61736870
:10006000206F6E205479706500427265617468007B
:100070004F6666002D2D2073696465204C45442031
:100080004D6F64650053706565640042726967680E
:1000900074004D6F6465002D2D2053696465204CFC
:1000A0006564202D2D0054657374004E6F6973656F
:1000B00000526970706C652052474200526970703E
:1000C0006C6500547261636B205247420054726148
:1000D000636B005261696E64726F70730047726186
:1000E0006420562E004772616420482E00526169D8
:1000F0006E626F7720562E005261696E626F7720B4
:10010000482E005261696E626F77004272656174B9
:100110006800536F6C6964004F6666002D2D2045A2
:100120006666656374202D2D005361747572617469
:10013000696F6E00436F6C6F72203200436F6C6F9B
:10014000722031004272696768740053706565649B
:1001500000456666656374002D2D20524742204C91
:1001600069676874202D2D004C656C6520696E20D0
:100170005370616365004375626500426F6E676F1F
:10018000436174004C656C65204C6F676F002D2DCA
:100190002053656C65637420417274776F726B00D5
:1001A00033363030730031383030730036303073CE
:1001B00000333030730036307300313073006E65B9
:1001C000766572002D2D204175746F2D6F66662047
:1001D00054696D6572004175746F204F6666004901
:1001E0006E7665727420646973706C617900427216
:1001F00069676874002D2D204F4C45442053657469
:1002000074696E67730048656C7000546F6D61743B
:100210006F2074696D657200486F6D65204172745E
:10022000776F726B0053696465206C69676874004E
:100230004F4C45442053637265656E00524742201F
:100240004C69676874696E67002D2D20536574745E
:10025000696E6773202D2D004272696768740A0009
:1002600053706565640A007400700069005B005497
:1002700000970092008B008500D6017777772E6C6F
:10028000656C656C61622E776F726B0A002D2D2094
:1002900048656C70202D2D0A0A726F746174653A7E
:1002A000206D6F76650A70726573733A2073656CA2
:1002B0006563740A0A004F4C4544204272696768BE
:1002C000740A004272696768740A0A00536174759F
:1002D000726174696F6E0A0A00436F6C6F720A0A6A
:1002E0000053706565640A0A001C01180112010BB5
:1002F000010301F800ED00E500DD00D300CD00C3EF
:1003000000BC00B100AB00A600580151014B0144F4
:10031000013C0134012901D60150726573733A65BD
:1003200078697400526F746174653A61646A7573B8
:10033000740053706163653A737461727400546F32
:100340006D61746F2054696D657200546F6D6174D6
:100350006F2054696D6572008E0184017B01760106
:1003600068010001010303020200040505070706F6
:1003700006040004010502060307204E554D200027
:1003800020434150532000C401BE01BA01B601B15F
:1003900001AC01A601A001F501EE01DF01D6014982
:1003A000023C023002250218020B02060200000085
:1003B0007804EF08660DDB115016C21A331FA12313
:1003C0000C28742CD93039359639EE3D424290468E
:1003D000D94A1B4F58538E57BE5BE65F07641F68B0
:1003E000306C397038742F781C7CFF7FD983A887D4
:1003F0006D8B278FD5927996109A9B9D1BA18DA40A
:10040000F3A74BAB97AED4B104B526B839BB3EBE0B
:1004100034C11BC4F2C6BAC973CC1BCFB3D13BD411
:10042000B2D619D96EDBB3DDE6DF08E218E416E6D2
:1004300003E8DDE9A5EB5BEDFEEE8FF00DF277F35F
:10044000CFF414F646F764F86FF967FA4BFB1BFC20
:10045000D8FC81FD17FE98FE06FF5FFFA5FFD7FFC2
:10046000F5FFFFFF0000000000000000000000009A
:10047000000000000000000000000000000000007C
:1004800000000000000000007E0F00D4FFFFFFC747
:100490000000007800000000000000002A2B280067
:1004A0000000000000000000000000000000002923
:1004B000000000002C1E3420212224342627252E63
:1004C000362D3738271E1F2021222324252633339B
:1004D000362E37381F0405060708090A0B0C0D0EC7
:1004E0000F101112131415161718191A1B1C1D2F93
:1004F0003130232D350405060708090A0B0C0D0EB3
:100500000F101112131415161718191A1B1C1D2F72
:100510003130354C00AED550A87FD300408D14202B
:1005200002A0C8DA12817FD922DB37A4A6AF00006F
:100530000A003C002C0158020807100E00000002BF
:1005400005023E5B4F5B3E003E6B4F6B3E001C3E28
:100550007C3E1C00183C7E3C18001C577D571C003C
:100560001C5E7F5E1C0000183C180000FFE7C3E71C
:10057000FF00001824180000FFE7DBE7FF00304809
:100580003A060E00262979292600407F0505070036
:10059000407F05253F005A3CE73C5A007F3E1C1C2B
:1005A0000800081C1C3E7F0014227F2214005F5F9D
:1005B000005F5F0006097F017F00006689956A0081
:1005C00060606060600094A2FFA2940008047E0452
:1005D000080010207E20100008082A1C0800081CB3
:1005E0002A0808001E10101010000C1E0C1E0C0013
:1005F00030383E383000060E3E0E06000000000087
:10060000000000005F000000000700070000147FEA
:10061000147F1400242A7F2A120023130864620026
:10062000364956205000000807030000001C2241F4
:1006300000000041221C00002A1C7F1C2A00080820
:100640003E08080000807030000008080808080014
:100650000000606000002010080402003E5149457F
:100660003E0000427F400000724949494600214156
:10067000494D33001814127F1000274545453900B5
:100680003C4A49493100412111090700364949498D
:100690003600464949291E000000140000000040B1
:1006A0003400000000081422410014141414140033
:1006B0000041221408000201590906003E415D591B
:1006C0004E007C1211127C007F49494936003E41A0
:1006D000414122007F4141413E007F49494941005B
:1006E0007F09090901003E41415173007F08080854
:1006F0007F0000417F4100002040413F01007F0812
:10070000142241007F40404040007F021C027F00D5
:100710007F0408107F003E4141413E007F090909E6
:1007200006003E4151215E007F09192946002649F5
:100730004949320003017F0103003F4040403F0030
:100740001F2040201F003F4038403F006314081422
:1007500063000304780403006159494D4300007F9E
:1007600041414100020408102000004141417F0046
:10077000040201020400404040404000000307081A
:1007800000002054547840007F2844443800384406
:1007900044442800384444287F00385454541800F6
:1007A00000087E09020018A4A49C78007F080404B5
:1007B000780000447D4000002040403D00007F1054
:1007C0002844000000417F4000007C047804780049
:1007D0007C0804047800384444443800FC1824247D
:1007E000180018242418FC007C080404080048544D
:1007F0005454240004043F4424003C4040207C0026
:100800001C2040201C003C4030403C004428102864
:1008100044004C9090907C004464544C4400000888
:10082000364100000000770000000041360800005B
:100830000201020402003C2623263C000F000000B7
:1008400000000F0F000000000F0F0F0000000F0F3F
:100850000F0F00000F0F0F0F0F000F0F0F0F0F0FD5
:1008600000AF00AE00A600A7290035001E001F0043
:10087000200021002200230024002500260027005C
:100880002D002E002A004B0029002B0014001A0016
:100890000800150017001C0018000C0012001300BF
:1008A0002F00300031004E002900390004001600EE
:1008B000070009000A000B000D000E000F003300B6
:1008C0003400280000004A002900E10000001D005B
:1008D0001B0006001900050011001000360037004B
:1008E0003800E50052004D0029003E00E000E20023
:1008F000E300000000002C0000000000E700E4001E
:100900000000500051004F0005010980A10185033E
:1009100019012AB700150126B7009501751081004D
:10092000C0050C0901A101850419012AA0021501C5
:1009300026A002950175108100C00660FF0961A123
:10094000010962150026FF009520750881020963E0
:10095000150026FF00952075089102C005010906C3
:10096000A101050719E029E7150025019508750182
:1009700081029501750881030507190029FF1500FB
:1009800026FF0095067508810005081901290595BF
:100990000575019102950175039103C00E034C008A
:1009A00065006C00650037003600000010034C0045
:1009B00065006C0065004C006100620000000403EB
:1009C000090409025B00030100A0FA090400000108
:1009D00003010100092101010001224000070581F6
:1009E0000308000A090401000203000000092101B4
:1009F0000100012222000705840308000A070504FC
:100A00000308000A09040200010300000009210193
:100A10000100012232000705830308000A120110B9
:100A2000010000000821CA4C0090030102000100EF
:100A300011241FBECFE5D8E0DEBFCDBF27E0A2E284
:100A4000B1E001C01D92A338B207E1F711E0A0E6C2
:100A5000B0E0E8E5F8E602C005900D92A232B107D9
:100A6000D9F70E94F5260C94FA330C940000A82FB5
:100A7000B92F80E090E041E050EA609530E009C095
:100A80002D9182279795879510F084279527305EC2
:100A9000C8F36F5FA8F30895EADF8D939D930895DF
:100AA000CF93CFB7CF93DF93C395839BE9F7839B16
:100AB00010C0839B0EC0839B0CC0839B0AC0839B8A
:100AC00008C0839B06C0C0915D07C395C0935D07B6
:100AD0008EC06F93C0915C07DD27CF59D84F2F93FD
:100AE00065E5839B03C02F916F91E1CF0F931F9317
:100AF0004F9320E040E15F9300B30C7003FB27F9B4
:100B00003F9350E03BE039C01C7040642F77012FC9
:100B10005F5F1EC0406810B31C702F7752501FC01B
:100B2000406400B32F770C70D1F15F5F00C023C029
:100B3000406210B32F771C7091F15F5F00C025C039
:100B40000C701027515012F45D5F00001150279572
:100B50002C3F10B3C8F61C700127015027952C3F7D
:100B6000C8F64227499300B30C7010274F731150F9
:100B700027952C3FA8F64695469510B31C7079F042
:100B80000127015027952C3F98F66B5A60F331509E
:100B900000B3B0F600C010E81ABF00271CC03B50DD
:100BA0003195C31BD04010E81ABF0881033C21F1E6
:100BB0000B3411F120915A071981110F1213EDCF47
:100BC0004A81441F093679F10D3211F0013E29F7AF
:100BD0004F7009F0042F009360073F915F914F9190
:100BE0001F910F912F916F91CAB7C7FD5DCFDF9114
:100BF000CF91CFBFCF91189520916007222369F341
:100C000010915E07112309F049C034300AF448C03E
:100C100030935E0720935B0710915C073BE0311B2C
:100C200030935C073DC000915E070130BCF50AE5DA
:100C30004F7049F430918D0034FD33C000938D0026
:100C4000C7E3D7E032C0433059F0443091F03091DF
:100C5000420734FD26C000934207C3E4D7E025C015
:100C60003091770734FD1DC000937707C8E7D7E0C0
:100C70001CC030914E0734FD14C000934E07CFE4E2
:100C8000D7E013C0052710E000C0000002BB1AC067
:100C9000052710E0221F1DC010E021C04AE502C058
:100CA00032ED432FC4E1D0E032E011B31C60939ADF
:100CB00002B311BB5CE020E865E320FF052702BB1F
:100CC000279517951C3FF0F66695B8F7B1F720FF0A
:100CD000052702BB279517951C3FD0F6279517953A
:100CE00017FF052700001C3F02BBB0F629913A957B
:100CF00019F7037F10915F07110FC651D04002BB57
:100D000011F010935A0710E81ABF086011B3137F4F
:100D1000402F437F54E05A95F1F702BB11BB42BB11
:100D20005CCFFC018381833089F130F48130F1F0B4
:100D3000823021F180E00895813209F446C0823288
:100D4000C9F7248135812130310509F45CC02115B2
:100D5000310509F450C02230310561F788E099E08F
:100D600090932F0780932E0782E308958DE19AE0F8
:100D700090932F0780932E0782E1089582EC99E0EB
:100D800090932F0780932E078BE508958281813001
:100D9000A1F0882351F0823069F68CE999E09093B4
:100DA0002F0780932E078EE008958EEB99E09093A5
:100DB0002F0780932E0784E008958CEA99E09093A2
:100DC0002F0780932E0780E108958281813081F082
:100DD000882331F0823009F0ADCF8DE09AE002C077
:100DE00084ED99E090932F0780932E0789E0089572
:100DF0008DEE99E0F7CF8CE599E090932F078093E3
:100E00002E0780E408952AE339E030932F072093DA
:100E10002E0708950895089580912907089588E17F
:100E200098E00FB6F894A89581BD0FBE91BDA89526
:100E3000F894D8E0CEE528E3299320E0299314BE66
:100E4000FFCF08952FB7F8946091720670917306E2
:100E500080917406909175062FBF089520917006B9
:100E6000309171062817390771F0909371068093BD
:100E70007006E0916E06F0916F06309721F00084C5
:100E8000F185E02D0995089520916C0630916D064D
:100E90002817390771F090936D0680936C06E091E6
:100EA0006E06F0916F06309721F00680F781E02DF5
:100EB00009950895E0916E06F0916F06309729F03C
:100EC0000190F081E02D0995089580E0089530911A
:100ED00064028317B0F590E0262F26952695269577
:100EE000239F800D911D1124811524E092074CF55C
:100EF000FC01E959FD4F5081677021E030E001C0ED
:100F0000220F6A95EAF74230E9F425272517C9F040
:100F1000208323E0969587952A95E1F78F7099278E
:100F200021E030E002C0220F331F8A95E2F7809162
:100F3000650290916602822B932B909366028093B8
:100F400065020895413011F4252BE0CF209525232B
:100F5000DDCFB0E0A0E0EFEAF7E00C94AC2DFC01AF
:100F600092818181C92F092E000CDD0BA096CC2E19
:100F7000082F082E000C110B005C1F4FD02E805F35
:100F8000813228F4965F42E06C2F9531C8F0F12C45
:100F9000E12CDA9442E06C2D8D2D8E0D0E946707B6
:100FA0008FEFE81AF80A83E0E816F10499F76C2F3E
:100FB000615042E0802F0E9467076C2F6F5F42E014
:100FC000802F0E946707CDB7DEB7E8E00C94C82DEC
:100FD00020916706309168062156324040916402A4
:100FE000642F70E0C9010E948E2D481B463010F41A
:100FF000240F311D211584E0380710F030E020E087
:1010000029593D4F30936806209367060895209133
:10101000640290E0629F800D911D1124811524E0EF
:10102000920714F090E080E089599D4F90936806F4
:1010300080936706089580E00895F894E82FE2957C
:10104000EF70F0E031A9282F2F7081E090E001C00F
:10105000880F2A95EAF7982F9095932391AB92A940
:10106000892B82AB789408959091220292FF06C05A
:10107000282F28712830F9F4877F846093FF06C0F9
:10108000282F28712831F1F4877E84612091230272
:1010900020FF06C0382F38713830D9F4877F81603F
:1010A00021FF06C0282F28712831D1F4877E816165
:1010B00094FD877E0895282F24712430F9F68B7FC4
:1010C0008860DCCF282F2471243101F78B7E886162
:1010D000DDCF382F3171313019F78E7F8860E0CF46
:1010E000282F2171213121F78E7E8861E1CFCF93A6
:1010F000DF93EC0182389105A9F1D8F58133910590
:1011000009F496C048F58932910509F48AC08A9796
:1011100009F495C0C11522E5D20708F0B6C0C11583
:1011200031E5D30708F026C1C83ED10508F09CC0C0
:10113000C03ED10560F5C83AD10508F087C0C53A70
:10114000D10508F0EFC0C130D10509F12097F9F0C1
:10115000C430D105E0F440C08533910509F45AC08C
:10116000C997C1F680912202837089F0C0EED0E069
:101170000EC0833E910599F170F4803E910501F116
:10118000823E910539F68091220282FD21C0CE0176
:10119000DF91CF910895863E910561F1873E9105DB
:1011A00071F1843E910509F0B5CF8091230281FF52
:1011B000EECF80912202C7EED0E084FD0DC0E7CFD4
:1011C0008091220280FD07C19091230290FFDFCF22
:1011D000C3EED0E084FFDBCFD0E0C0E0D8CF809179
:1011E000220282FDFBC09091230290FDBFCF84FFBD
:1011F000CECFF2CF8091220283FDDDCFC8CF809188
:10120000220283FDEEC09091230291FFF0CFC4EE45
:10121000D0E0BDCF8091220285FFB9CFC9E2D0E0F6
:10122000B6CF8091220285FFB2CFC5E3D0E0AFCF29
:101230008091220286FFABCFCAE2D0E0A8CF809196
:10124000220286FFA4CFC1E3D0E0A1CFCF3BD105DE
:1012500018F6C85AD0E0CC0FDD1FC153DF4F0990FC
:10126000D881C02DD46493CFC11540E5D40708F0D0
:1012700064C0C11580E4D80708F05CC0CE019A951F
:1012800081159F4108F483CFA7CFC11536E5D30759
:1012900018F5C11545E5D40708F084C0C11584E5EB
:1012A000D80708F07AC09C2F969596959E012370DA
:1012B0003327C115D34508F462C0C1E0D0E002C0B5
:1012C000CC0FDD1F2A95E2F730E2939FC001112475
:1012D000C82BD92BDA685BCFC1158AE5D80778F41B
:1012E000C11599E5D90708F068C0C11528E5D207EE
:1012F00008F472CFDC2FCC27C06FD06A48CFCE0164
:1013000090568115904208F067CF8D2F8F710E9403
:10131000340890E0982F882788279F719C012C2BF8
:10132000E90149C0C55AD0E0C453DF4FC881D0E0BD
:10133000D0642DCFDF70D06A2ACFCE01E4E096953D
:101340008795EA95E1F783702C2F269526952370D3
:1013500040E2249F90011124382B8C2F8370C1E030
:10136000D0E002C0CC0FDD1F8A95E2F7C22BD32B51
:10137000DC680DCFDC2FCC27C16FD06A08CFC1E06D
:10138000D0E002C0CC0FDD1F2A95E2F720E2929F49
:10139000C0011124C82BD92BEBCFDC2FCC27C46F75
:1013A000D06AF5CE8C2F0E943408C82FD0E0DC2FF5
:1013B000CC27CC27DF71D062EACE8C2F8F700E94B1
:1013C000340834E0D695C7953A95E1F7CF709C2F55
:1013D000EC01D069DCCEC9E3D0E0D9CEC2EED0E0DA
:1013E000D6CEC6EED0E0D3CE80910F0281111092FE
:1013F0000F020895809590912402982390932402DF
:1014000008958091240290910E02892B80932401EB
:1014100090910F02992391F0892B8093240120E071
:1014200086E291E0FC013191CF0131112F5FF1E0B3
:101430008C329F07B9F721110E94F409E0916E06E2
:10144000F0916F06309731F00280F381E02D84E255
:1014500091E00995089580910C029091DB01981319
:1014600001C008958F5F8770FACF953080F5803185
:1014700070F540E1949F90011124820F932F911DEC
:10148000682F677023E0969587952A95E1F7FC0110
:10149000EE0FFF1FE80FF91FE954FE4F50E040E048
:1014A00080E0219130E0062E02C0369527950A94FF
:1014B000E2F721703327042E01C0220F0A94EAF7C5
:1014C000822B4F5F5F4F4330510559F7089580E0FD
:1014D0000895953098F5803188F540E1949F90010A
:1014E0001124820F932F911D282F277041E001C0F6
:1014F000440F2A95EAF723E0969587952A95E1F718
:10150000FC01EE0FFF1FE80FF91FE954FE4F90E0BA
:1015100080E070E05191DF0111979B01082E02C01D
:10152000369527950A94E2F72170219525272423E3
:1015300025272C9301968330910561F7089590E05B
:1015400080E00E94440790E080E00E942E07109205
:101550000E020E94010A0895809330070E949F0A9C
:10156000089580913007982F9670963021F4886006
:101570000E94AC0A0895877FFBCF21E030E001C0D4
:10158000220F8A95EAF720958091300782230E94E6
:10159000AC0A089590910D028095892380930D02E5
:1015A000282F277091F4282F082E000C330B921748
:1015B000130659F09091230292FF07C085958595F7
:1015C00085950E94BD0A10920D02089521E030E039
:1015D00001C0220F8A95EAF780913007822B0E9482
:1015E000AC0A0895809310020E949F0A08958823F0
:1015F00021F00E94FA090E94010A0895882339F017
:1016000090912402982B909324020E94010A08953D
:10161000882391F19CEF980F913A80F4E6E2F1E093
:101620002CE231E09191891303C0DF0111971C92E4
:101630002E173F07B9F70E94010A089590E2980F0C
:10164000983050F4877091E001C0990F8A95EAF7BD
:10165000892F0E94FA09EFCF9BE5980F933028F469
:1016600090E080E00E9444070895885A873120F472
:1016700090E080E00E942E0708950F931F93CF9370
:10168000C82F882349F18CEF8C0F813AB8F506E218
:1016900011E08CE291E0F8012191C21709F121E0FB
:1016A000EC32F207C9F7EFEF80E0D8019D918D0190
:1016B000C91781F0EF3F19F4911101C0E82F8F5F36
:1016C000863099F7EF3F31F00E2E000CFF0BEC5DEA
:1016D000FE4FC2830E94010ACF911F910F9108957E
:1016E000E6E2F1E02191C21303C0DF0111971C92E1
:1016F0008E179F07B9F70E94010AD5CF80E28C0FA1
:10170000883068F4C77021E030E001C0220FCA952C
:10171000EAF780912402822B80932402DBCFEBE551
:10172000EC0FE33040F4F0E0E453FF4F808190E0B1
:101730000E944407D1CFC85AC73170F6EC2FF0E0B1
:10174000EE0FFF1FE153FF4F808191810E942E0712
:10175000C3CF8B35910578F4EAE5F0E0E81BF90B8F
:10176000EE0FFF1FE255FC4F6591749190E080E011
:101770000E94FF3212C09C012B5531092A353105D8
:1017800098F4FC01EE0FFF1FE650FD4F6591749138
:1017900090E080E00E94FF32905820E03FEF4FE75A
:1017A00057E40E94573208959C01255B31092A3580
:1017B000310548F4EEE0F1E0E81BF90BEE0FFF1FF6
:1017C000E255FC4FE3CFFC01EE0FFF1FEE56FE4F3C
:1017D000CBCFFC018B35910550F09C012B55310985
:1017E0002A353105A8F4E4EBF0E0E81BF90BEE0F25
:1017F000FF1FE255FC4F6591749190E080E00E94DC
:10180000FF3220E03FEF4FE757E40E945732089540
:101810009C01255B31092A35310560F4EE0FFF1F6D
:10182000EA5BFD4F6591749190E080E00E94FF3289
:101830009058E7CFE8E6F1E0E81BF90BEE0FFF1F49
:10184000E255FC4FEFCF20919301909194018823B2
:10185000B9F0409195014150550B241715061CF421
:101860002F5F2093930180919301292F30E0295F0E
:101870003F4F9F5F8217130609F064F480E00895DC
:10188000222319F02150209393018091930189170D
:10189000A8F7915090939401F1CF81E00895909131
:1018A0002D019130B1F490913201882361F0915073
:1018B0009093320180913201811107C081E08093C1
:1018C000320180E008959F5FF3CF8D33D0F38CE336
:1018D000F6CF81E00895EF92FF920F931F93CF937D
:1018E000DF93EC017B0168E270E088EB0E94392C09
:1018F0008C01EC0EFD1ECE15DF0551F017FD08C062
:1019000068E270E089910E949E2C8C01892B99F3EA
:101910000E948B2DC801CDB7DEB7E6E00C94CA2D2E
:10192000B0E0A0E0E6E9FCE00C94AC2D6C017B019A
:1019300064E670E088E70E94392CEC0197FD12C044
:1019400010E000E0F601E00FF11F849164E670E022
:101950000E949E2CEC01892B29F40F5F1F4F0E155E
:101960001F0581F70E948B2DCE01CDB7DEB7E8E0D1
:101970000C94C82D90916A0620916B06222391F059
:101980008F3F11F481E08927882391F0911108C0DD
:1019900062E070E086E698E00E94900C892B21F0CE
:1019A00090916A06892F089581E080936A06F8CFA6
:1019B0009923B1F362E070E084E698E00E94900C15
:1019C000892B71F710926A06EBCF8091690690918E
:1019D0006B06911103C091E089270895882369F06F
:1019E00062E070E082E698E00E94900C892B19F08A
:1019F0008091690608951092690680916906EBCF7F
:101A00008091690690916B06992361F0811108C05D
:101A100062E070E080E698E00E94900C892B19F05B
:101A200080916906089581E080936906F9CF869BCD
:101A30000DC022E020933607FC01808191819093B4
:101A400032078093310786EF9FEF089562E070E0E0
:101A50000E946B0C0895A2E0B0E0E1E3FDE00C947D
:101A6000B22D89836A83CE0101960E94170D2296BA
:101A7000E2E00C94CE2D90913C02882371F09233D9
:101A800018F49F5F90933C0280913C026CE3681BCA
:101A900088E00E942B0D80E008959923A9F39150CE
:101AA000F1CF90913802882389F09F5F909338029C
:101AB00080913802833318F082E38093380260917A
:101AC000380286E00E942B0D80E008959923B9F337
:101AD0009150ECCF20912C01EBE3F2E0211102C0F8
:101AE000EAE3F2E09081882359F09F5F9083608160
:101AF00085E0211101C084E00E942B0D80E0089553
:101B00009150F4CF90913902882361F09F3F19F0F2
:101B10009F5F909339026091390287E00E942B0DFC
:101B200080E008959923B9F39150F3CF6091370283
:101B300083E00E942B0D08950E94230C8091930155
:101B4000882329F08150809337020E94960D80E00F
:101B50000895A2E0B0E0EFEAFDE00C94B22D909180
:101B60004002882399F09A30B0F49F5F909340022E
:101B70008091400296E199838A83CE0101960E946A
:101B8000170D80E02296E2E00C94CE2D992381F38C
:101B9000915090934002809140028B3048F38AE04C
:101BA00080934002E5CFA2E0B0E0E9EDFDE00C94C7
:101BB000B22D90913F028823D1F09F3718F49F5F98
:101BC00090933F0280913F0287FF03C08FE780938D
:101BD0003F0280913F0295E199838A83CE0101966D
:101BE0000E94170D80E02296E2E00C94CE2D9923FE
:101BF00081F39150E5CFA2E0B0E0E1E0FEE00C948B
:101C0000B22D80913E02843038F494E199838A8326
:101C1000CE0101960E94170D2296E2E00C94CE2D83
:101C20000E94230C80919301882329F08150809396
:101C30003E020E94FB0D80E00895CF93DF938091D8
:101C40005E07835087FD14C090915C07CCE0D0E024
:101C5000C91BD109CF59D84F90915B07903108F03B
:101C60006BC0883009F453C010921E0710925E07B3
:101C700080918D0084FF3EC080918C008F3FD1F118
:101C8000C82F893008F0C8E0982F9C1B90938C00D7
:101C90009091370728E89227909337078823E9F037
:101CA00080912E0790912F0720912D0726FF06C1C6
:101CB000FC012C2FA8E3B7E034913D9331962150DD
:101CC000D9F79C012F5F3F4F8FEF8C0F820F932F1F
:101CD000911D90932F0780932E076C2F88E397E038
:101CE0000E944C05CC5FCC3019F08FEF80938C00B4
:101CF000C0938D0084E190B39C7031F48150D9F78A
:101D000010925F0710925A07DF91CF91089580914A
:101D10001E07893108F0A8CFE82FF0E0E250F94F14
:101D20009E01285F3F4F999191932C173D07D9F75A
:101D3000885F80931E079ACF9D3209F0A3C0883038
:101D400009F094CF83EC809337078AE580938D0068
:101D500010922D078881807609F447C0803229F5DA
:101D60008981813099F48C819D81892BF1F480E205
:101D700097E090932F0780932E0788E09F81911121
:101D800031C09E81981770F5892F2CC0823041F4A4
:101D90008FE197E090932F0780932E0781E0EECF9D
:101DA0008A3029F48B8180931F0780E0E7CF893048
:101DB000E1F78A819B818115924069F48C819D8134
:101DC000892B49F481E080932C078E819F81909329
:101DD0002B0780932A07888187FF52C08E8190E865
:101DE00090932D0780938C0041CF2A811092400759
:101DF000998191110AC01092410720E437E082E0F6
:101E000030932F0720932E07B9CF953029F42093D4
:101E10005F0720E437E0F4CF9630C1F49B81913026
:101E200049F4CE010E94910690E490932D078F3FD4
:101E300091F2A4CF9230A9F3933099F3913289F3C0
:101E4000923279F390E490932D0798CF983089F0EF
:101E5000993019F420932807DCCF9A3071F09B3029
:101E6000C1F69BE4909343079093780790934F07B4
:101E7000D0CF28E237E081E0C3CF20E437E0FBCFCA
:101E80008FEFADCF80912D0787FFF0CE80912A078D
:101E900090912B07892B71F080912C07813051F4A0
:101EA00088818093290710922B0710922A0710929D
:101EB0008C00DCCE8EE180938D00D8CEDC012C2FFF
:101EC000E8E3F7E03D9131932150E1F7FACE1F931B
:101ED000CF93DF93E82F792F162FEA01888184FFB3
:101EE0001CC0298188E828272983CE010296DC01BD
:101EF0002E2F372F512F5E0FF90121912D939F0126
:101F0000452F4E1B1416C4F3612F0E944C051C5F15
:101F10001883DF91CF911F9108958AE58883E5CFDB
:101F20009091FD06981307C02091FB063091FC06A6
:101F300026173707B9F08093FD067093FC0660936F
:101F4000FB068093F8067093FA066093F906809179
:101F5000770784FF07C047E757E063E088EF96E024
:101F60000E94670F0895BC0184E00E94900F0895BD
:101F7000BC0183E00E94900F0895CF93DF93CAE0E5
:101F8000D0E08091420784FF1CC08091F6069091BA
:101F9000F706981799F028E0829FC001112442E4C7
:101FA00057E068E08A58994F0E94670F8091F606C3
:101FB00090E001968F7099278093F606DF91CF917C
:101FC00008950E941D0E8FE99FE00197F1F700C070
:101FD00000002197B1F6F2CFCF93DF93EC01A091EF
:101FE000F706B0E0CD0101968F7099272091F60693
:101FF000281779F093E0AA0FBB1F9A95E1F7AA582A
:10200000B94F98E0FE0101900D929A95E1F7809307
:10201000F7060E941D0E0E94BD0F88E0FE01A0E29F
:10202000B7E001900D928A95E1F7DF91CF91089585
:102030001F93CF93DF93182FC8E2D0E0893311F4B8
:10204000C0E5D0E0812F0E943D0B8FE99FE0019712
:10205000F1F700C000002197C1F7812F0E94080B03
:10206000DF91CF911F910895CF93DF93C7EAD2E01C
:1020700060E0CE010E9454312196C11584E0D8075A
:10208000B9F7DF91CF9108951F93CF93DF93122F6C
:102090008430E0F46530D0F44031C0F490E2699FC0
:1020A000E001112450E0440F551FC40FD51F90EAE2
:1020B000899FC00DD11D1124632FCE0187960E94E8
:1020C0005431612FCE0188960E945431DF91CF9117
:1020D0001F910895AF92BF92CF92DF92EF92FF923D
:1020E0001F93CF93DF9388E6C82E88E0D82ED0E0E8
:1020F0007601C0E014C0F50125913491412F6C2F79
:102100008D2F0E94441082E0A80EB11C1F5F103179
:1021100091F780E2E80EF11CCF5FC53019F057014E
:1021200010E0E9CFDF5F80EAC80ED11CD43001F7A0
:10213000DF91CF911F91FF90EF90DF90CF90BF90F4
:10214000AF900895CF93C82F6FEF811163E283E2C0
:1021500090E00E9454316FEFC11161E084E290E0A1
:102160000E9454316FEFC11169E285E290E00E9454
:102170005431CF91089580E00E94A21060E086E281
:1021800090E00E9454310E946A100E94341081E055
:102190000E94A2100895CF93C0912302C2FB9927F9
:1021A00090F9981791F080FBC2F9C09323026091D7
:1021B000220284E090E00E9454316C2F82E290E091
:1021C0000E94543182E00E94CA0ACF9108950F9371
:1021D0001F93CF93DF9304E312E0C6E0D0E0F80151
:1021E00061918F01CE010E9454312196C531D105F4
:1021F000B1F766E085E090E00E945431DF91CF9125
:102200001F910F9108950F931F93CF93DF93843005
:1022100030F5653020F5403110F520E2629F8001F5
:10222000112450E0440F551F040F151F30EA839FFF
:10223000000D111D1124C80187960E944631C82F38
:10224000D0E0DC2FCC27C80188960E9446319E0141
:10225000282BC901DF91CF911F910F91089590E034
:1022600080E0F8CF462F843040F4753030F4603190
:1022700020F4672F0E940311089590E080E00895F4
:10228000CF92DF92FF920F931F93CF93DF936C0156
:102290000091300780911002082BC7E0D0E010E0D9
:1022A000FC2EC8010C2E02C0959587950A94E2F782
:1022B00080FD0CC02197A0F7F12C8F2DDF91CF91DD
:1022C0001F910F91FF90DF90CF900895B6018C2F52
:1022D0000E9432110E947708019761F3EECFCF93ED
:1022E000DF93EC010E944011BE010E9432110E9456
:1022F0007708DF91CF910895FC01808191810E9440
:102300006F1192959F70963091F058F4925F9F7084
:10231000923058F4803F19F030F4883E30F481E078
:1023200008959A5FF4CF843FD1F380E00895883E0A
:10233000B0F3813FD1F7F3CF83E290E00E944631C2
:10234000833289F484E290E00E944631813059F46E
:1023500085E290E00E94463191E0893209F090E0F8
:10236000892F8170089580E0FCCFA3E0B0E0EBEB13
:10237000F1E10C94B12D182F80918B0090916B0698
:102380009923A1F0198291E89A831B83181761F0B1
:1023900024E630E043E050E0BE016F5F7F4F88E706
:1023A0000E940B2D892B31F080918B002396E3E066
:1023B0000C94CD2D10938B00F7CFA2E0B0E0E3EEAC
:1023C000F1E10C94AE2D869992C0E0916400E15049
:1023D000E93008F081C0F0E0E450FC4C0C94F92D99
:1023E00085E090E00E9446318630E1F18BE08093F9
:1023F000370289E18093380282E380933C028FEFB9
:10240000809339028CE380933A0288EC80933B02FC
:1024100010923D0284EB80933402109235021092A8
:10242000360282E080933E028FE780933F028AE08B
:102430008093400210924102109242020E94E710E3
:10244000809134020E94B511809135020E94BA0C2D
:102450001092470210924602809164008F5F809331
:10246000640045C006E010E084E3E82E82E0F82E28
:10247000C8010E944631F70181937F010F5F1F4F12
:1024800005311105A9F7DCCF0E94960DE5CF6091CB
:10249000390287E00E942B0DDFCF6091380286E081
:1024A000F9CF60913A0284E0F5CF60913B0285E07C
:1024B000F1CF80913C026CE3681B88E0EBCF0E9477
:1024C000FB0DCACF80913F0295E199838A83CE01AB
:1024D00001960E94170DC0CF8091400296E199832A
:1024E0008A83CE0101960E94170D109264002296F5
:1024F000E6E00C94CA2D90912C01882369F09F3F4F
:1025000019F09F5F90932C0180912C0180933402ED
:102510000E94B51180E008959923B1F39150F2CF54
:10252000A2E0B0E0E6E9F2E10C94B22D19828A83D0
:1025300024E630E042E050E0BE016F5F7F4F88E765
:102540000E940B2D2296E2E00C94CE2D1F93CF9388
:10255000DF93162F8A3039F481E00E945A13DF91FD
:10256000CF911F9108958D3011F480E0F6CFC09186
:102570006706D091680696E0FE01AEE5B2E00190F4
:102580000D929A95E1F78638B8F086E0FE01119237
:102590008A95E9F7C0916706D0916806111118C0B5
:1025A00046E050E0BE018EE592E00E94A72E892B06
:1025B000D1F40E94E807D3CFF6E08F9FB001112439
:1025C000645C7A4F46E050E0CE010E94622EE2CF7A
:1025D0009E012A5F3F4FFE012E173F0709F38081BE
:1025E00080958193F9CFC756D240CE0123E09695CE
:1025F00087952A95E1F78F70992721E030E0A901AE
:1026000002C0440F551F8A95E2F7CA014091650246
:1026100050916602842B952B259643E0D695C7955D
:102620004A95E1F7CF70DD2702C0220F331FCA950C
:10263000E2F7822B932B9093660280936502B9CFC9
:102640000F931F93CF93DF93EC01FC0101900020C7
:10265000E9F78F0101501109C017D10728F0DF9168
:10266000CF911F910F91089560E089910E94A61269
:10267000F3CF1F93CF93DF93EC01162FFE018491CC
:10268000811104C0DF91CF911F910895612F0E94A5
:10269000A6122196F3CF80914302882351F060E087
:1026A0008DE892E00E94391360E08BE792E00E948F
:1026B00039130895CF93382FE0916706F09168069B
:1026C000E756F24020916402622F70E0CF010E9431
:1026D0008E2D281B822F332369F066E00E94D92DAE
:1026E000C82FC15010F4CF91089560E080E20E949D
:1026F000A612F7CF9F01280F311D2115344018F085
:1027000080E0F0E0E0E08E0F9F2F911D89599D4FF2
:102710009093680680936706E6CF0F931F93CF933D
:102720006817790708F4CB019695982F8827979515
:1027300087950E948E2D8B01C0E00630110568F44C
:102740000115110541F0C531E8F460E080E8800F23
:102750000E94A612CF5F15E013C060E085E80E94DA
:10276000A612CF5F06501109E8CF8C2F612F0E946F
:10277000D92D60E080E8911180E20E94A612CF5F1F
:10278000C53198F3CF911F910F91089560E089EDC5
:1027900092E00E94391380912C01811108C0809130
:1027A0003A026FEF70E090E00E948D1308958091DF
:1027B0003B02F7CFE7E6F2E080E094E0DF019C0126
:1027C0001D9221503040E1F7F0936806E0936706D0
:1027D0008FEF9FEF909366028093650208956115D5
:1027E000710511F46DE47CE04115510511F445E1EA
:1027F00054E190934502809344027093AA01609340
:10280000A9015093B6014093B5011092B401109202
:10281000B3010E94DA1381E0809343021092AE016B
:102820001092AD0110924D0208954FE854E16BE211
:1028300074E189ED99E10E94EF1380E098E19093B3
:10284000B4018093B30180916400813011F40E943F
:10285000DD1180E0089590919001992391F090917D
:102860004202882361F09F5F90934202809142026E
:102870008370809342020E94151480E00895915065
:10288000F3CF81E00895CF92DF92EF92FF920F9302
:102890001F93CF938C01FB018281811109C081E0DC
:1028A000CF911F910F91FF90EF90DF90CF900895FF
:1028B0000932110511F40E941514C0912D01C13087
:1028C00071F70C32110559F70E9422076B017C0148
:1028D0002091320130E0A0E6BAEE0E94DB31C60E54
:1028E000D71EE81EF91EC0922E01D0922F01E09251
:1028F0003001F092310182E080932D01C0934302B8
:1029000080E0CECF80919301882329F0815080937D
:1029100042020E94E7100E94151480E008950E9470
:10292000E710E1E9F1E08FE993E09183808312827F
:1029300087E08483138244EC55E163E27CE080E32A
:1029400099E10E94EF1384E080934D020E942207D8
:102950006093490270934A0280934B0290934C0219
:1029600081E00895E1E9F1E087E993E091838083D4
:1029700081E0828384E08483138242ED54E163E248
:102980007CE080E399E10E94EF1380E0089580915C
:102990009301882319F08150809336020E94B2146B
:1029A00080E00895809193018230A1F08330D9F0C6
:1029B0008130A9F542EB54E16BE772E187E79EE1D4
:1029C0000E94EF138AE090E09093AE018093AD01F6
:1029D00080E008958091350291E089278093350247
:1029E0000E94BA0CF5CF809136028F5F883008F0D4
:1029F00080E027E833E030939201209391018093A7
:102A0000930188E0809395011092940147EC54E182
:102A100063E27CE080E399E10E94EF13D9CF0E944A
:102A20008F14D6CF0E94E710E1E9F1E089E093E04E
:102A30009183808381E0828388E08483138244E3EE
:102A400055E163E27CE080E399E10E94EF1380E0CE
:102A5000089580919301882319F0815080933D025D
:102A60000E94121580E0089580919301883040F40F
:102A7000E82FF0E0EB5FFB4C0C94F92D0E9415144D
:102A800081E00895809137028F5F803108F080E007
:102A900029EE32E0309392012093910180939301CB
:102AA00090E190939501883048F41092940142E1AE
:102AB00055E16CE97DE080E399E11DC083508930E8
:102AC00018F480939401F3CF88E0FBCF42E155E105
:102AD0006BE37DE08CE89EE10E94EF1381E090E0E3
:102AE0009093AE018093AD01CBCF42E155E161E51A
:102AF0007DE088E99EE10E94EF13C2CF845080936D
:102B00002C0142E155E16AE67DE086EC93E10E940A
:102B1000EF1384E090E0E4CF42E155E162E87DE02C
:102B200084EA9EE10E94EF138AE090E0D9CF809181
:102B30003D028F5F883008F080E027E833E0309373
:102B40009201209391018093930188E080939501F5
:102B50001092940149E255E163E27CE0ACCFE1E9F7
:102B6000F1E081E792E09183808381E0828385E0D8
:102B7000848313824CE156E163E27CE080E399E1D7
:102B80000E94EF1380E00895809193018330D9F083
:102B900038F4813089F0823099F00E9415140EC00B
:102BA000853081F198F08630C1F750E040E070E068
:102BB00060E08BE493E123C00E94121580E0089549
:102BC0000E94B214FBCF0E94AF15F8CF8091420251
:102BD0008F5F853008F080E028E533E03093920184
:102BE000209391018093930185E080939501109249
:102BF000940142E854E163E27CE080E399E10E94C1
:102C0000EF13DCCF50E040E06FE47CE08AE498E131
:102C10000E94EF1383E494E19093B4018093B30195
:102C2000CDCF80919301882319F081508093410288
:102C30000E94AF1580E008958091910190919201DA
:102C40008157924051F480919301823009F441C040
:102C500030F4882309F1813011F180E00895833048
:102C600009F446C08430C9F7809141028F5F8830F3
:102C700008F080E027E833E030939201209391013F
:102C80008093930188E0809395011092940141E133
:102C900056E163E27CE01AC00E948F14DECF80917F
:102CA0003E028F5F853008F080E027E632E0309307
:102CB0009201209391018093930185E08093950187
:102CC000109294014FEA55E160E17EE080E399E1E2
:102CD00015C04FEA55E163ED7DE080EB9EE10E9477
:102CE000EF138AE090E09093AE018093AD01B5CFF1
:102CF0004FEA55E169EA7DE08CEB9EE10E94EF131B
:102D0000ACCFE6E2F1E086E0DF011D928A95E9F7BB
:102D10000E949F0A0895109224020E9481162FEFAC
:102D200084E39CE0215080409040E1F700C0000027
:102D300088E198E00FB6F894A89581BD0FBE91BDCB
:102D4000FFCF68EE7EEF90E080E00E94713160E09E
:102D500082E090E00E94543160E083E090E00E94C5
:102D600054311092100260E084E090E00E945431EF
:102D700064E082E290E00E94543160E085E090E0FF
:102D80000E94543160E086E090E00E9454316FEF81
:102D900087E090E00E94543140E050E0BA0188E0C2
:102DA00090E00E94653160E08DE090E00E94543137
:102DB00040E050E0BA0188E190E00E94653160E0B7
:102DC00087E190E00E94543140E050E0BA018CE18C
:102DD00090E00E94653170E060E080E290E00E9447
:102DE000713140E050E0BA0188E190E00E94653125
:102DF00080E00E94A2100E94BB1040E050E0BA01A7
:102E00008FE090E00E94653140E050E0BA0183E13C
:102E100090E00E9465310895A2E0B0E0E2E1F7E1C0
:102E20000C94B02D8C01982F812F9A83898324E6EE
:102E300030E042E050E0BE016F5F7F4F8EEA0E94BB
:102E40000B2D24E630E040E150E066E971E08EEAC7
:102E50000E942B2D1092A8011093A7010093A601A8
:102E60002296E4E00C94CC2D8091A801803158F09A
:102E70008091A6019091A70140969093A70180931D
:102E8000A6010E940C17E091A80181E08E0F8093AB
:102E9000A801F0E0EA56FE4F80810895B0E0A0E07E
:102EA000E4E5F7E10C94A82D0E940C170E9434175A
:102EB000A82EAA1CAA24AA1C8F70F82E0E943417D0
:102EC000C82E0E943417B82E0E9434179C2CD12C87
:102ED00094EAE92E01E010E0C0E8D0E0CC19D10975
:102EE000209167063091680627563240213084E0F1
:102EF0003807CCF583E0369527958A95E1F72F7052
:102F00003327C80102C0880F991F2A95E2F79C0158
:102F10008091650290916602822B932B90936602BA
:102F200080936502DD2021F1DA948B2CE091670615
:102F3000F0916806AA2011F080818826808231965F
:102F4000F0936806E09367069A9491100AC0FA9489
:102F5000FF2049F0EC0FFD1FF0936806E093670631
:102F60009C2CE110BDCFCDB7DEB7ECE00C94C42DA6
:102F70000E943417882E8FEF8E0DB81008C00E9463
:102F80003417DD24DA94D80EEA94EA94CFCFE82EF1
:102F9000CDCF0F931F93CF93C82F809171018C17C2
:102FA00001F1CC2391F0811110C0C130F1F484E023
:102FB00060E000E012E06E5F805C0E940708C801DC
:102FC0000E944E17C09371010CC062E080E40E9421
:102FD000070880E691E00E944E1710927101C1111E
:102FE000E4CFCF911F910F91089589E161E000E650
:102FF00012E0C23001F38EE061E000EA12E0DBCFC4
:10300000FB018181843031F49081913019F49281F7
:103010009093900190914202913031F492819111FC
:1030200005C080E00E94C91781E00895843029F02E
:103030008081873020F082E0F5CF83E0F3CF81E01C
:10304000F1CFA0E1B0E0E7E2F8E10C94B02D8131DE
:103050002EE09207D8F46CE370E00E948E2D9F93CF
:103060008F937F936F9381E990E09F938F938E016D
:103070000F5F1F4F1F930F930E94B42EC8010E9431
:1030800020130FB6F894DEBF0FBECDBF6096E4E00C
:103090000C94CC2DCF92DF92EF92FF92809143025D
:1030A0008823D9F00E94DA1362E080E00E940708CA
:1030B00090E080E00E944E1780912D01823011F047
:1030C000843049F462E08AE20E94070860E08BE401
:1030D00093E00E9439131092430280912D018230B7
:1030E00009F45BC038F48823E9F0813029F11092AB
:1030F0002D0167C0833009F47DC08430C1F7C090D2
:103100002E01D0902F01E0903001F09031010E940B
:1031100022076C157D058E059F0508F492C010925C
:103120002D018BC080913201811103C089E1809310
:10313000320181E080932D0161E08FE20E94070857
:1031400060E08EE393E00E94391365E08DE20E9417
:10315000070860E082E393E00E94391366E08DE2A5
:103160000E94070860E084E293E00E94391367E060
:103170008DE20E94070860E089E193E00E94391324
:1031800063E086E30E940708809132012CE3829F6E
:10319000C00111240E94211814C0C0902E01D090AB
:1031A0002F01E0903001F09031010E942207C616F5
:1031B000D706E806F90650F483E080932D011092BB
:1031C0002C01FF90EF90DF90CF9008950E9422078E
:1031D000C61AD70AE80AF90A65E086E30E940708DA
:1031E000C701B60128EE33E040E050E00E94B9315B
:1031F000C901D0CF80912C018F5F80932C01877003
:10320000873019F48FEF0E94BA0C80912C018D3316
:10321000C0F280E00E94BA0C84E080932D010E94ED
:10322000220760527C468B4F9F4F60932E01709314
:103230002F01809330019093310181E0809343020C
:10324000C0CF65E08DE20E9407080E942207A70117
:103250009601261B370B480B590BCA01B901C2CF87
:103260000F931F93CF93DF9310E000E080919501BF
:103270008017110669F164F1C0919401C00FD12F3C
:10328000D11D8091930160E08C171D0651F58EE3EE
:103290000E94A61260E080E20E94A612CC0FDD1F01
:1032A000E0919101F0919201EC0FFD1F65917491F5
:1032B00086E791E00E946B2E86E791E00E94201342
:1032C00081E00E945A130F5F1F4F0830110571F6FD
:1032D000E0919501E93038F4DF91CF911F910F9182
:1032E000089580E2D5CFF0E080E092E0BF010E9437
:1032F0008E2DD62F643008F4D4E08091940120E420
:10330000829FC0011124BF010E948E2D062FD60F6F
:103310001FE7C0E006C040E06C2F812F0E946707C6
:10332000CF5F0C13F8CFC02FCD1730F0C03458F05A
:103330001E3791F21EE7EDCF41E06C2F812F0E94E6
:103340006707CF5FF1CF40E06C2F812F0E946707A6
:10335000CF5FECCFCF93DF93EC010E94522E8370AE
:1033600011F188830E94522EAC018F708A839A01DA
:1033700094E0369527959A95E1F72F71952F9695BC
:1033800090FD13C0298391FF02C081958A830E941A
:10339000522E6FE570E00E94E52D882341F08B836B
:1033A000DF91CF91089581E0DCCF2195EBCF81E0D3
:1033B000F6CFA8E2B0E0EFEDF9E10C94A22D8091F8
:1033C0004302882309F4C8C00E94DA1310928F01C7
:1033D00010928E0110928D0180918E0190918F013B
:1033E0008233910509F036C124E630E047E050E031
:1033F000BE016F5F7F4F80E70E942B2D892B09F064
:1034000073C0898187FD70C06A817B8176276727B9
:10341000762790E080E00E94FF3220E030E040E834
:1034200057E30E948D3320E030E048EC52E40E94E4
:103430008D336B017C010E94C93260937201072EAB
:10344000000C880B990B0E9401339B01AC01C70152
:10345000B6010E94EA3120E030E040E251E40E94EF
:103460008D330E94C932609373018C818F706D819E
:10347000782F24E0660F771F2A95E1F78E818295D9
:103480008F70682B90E080E00E94FF3220E030E0F7
:1034900040E857E30E948D3320E030E048E453E4F5
:1034A0000E948D3320E030E048E452E40E94EA318B
:1034B0006B017C010E94C93260937401072E000CDD
:1034C000880B990B0E9401339B01AC01C701B60127
:1034D0000E94EA3120E030E040E251E40E948D3366
:1034E0000E94C93260937501809143028823B1F034
:1034F00067E080E00E94070880EC90E00E942013C3
:1035000080914202882311F0833041F462E080E52B
:103510000E94070880EA90E00E944E1780916400A4
:10352000882309F4DAC00E94DD11809142028230C2
:1035300009F46BC1833009F4E1C0813009F03BC16B
:1035400080914302882309F436C183E0809371019E
:1035500080E00E94C9172FC10E945A07182F80913E
:103560008D018117E9F010938D0160E080E00E94E9
:10357000070881E00E945A1360E080E00E9407087B
:1035800011FF07C061E080E893E00E9439130E94B8
:10359000E80710FF05C061E08AE793E00E94391355
:1035A000809115028F93809114028F938CE990E0A3
:1035B0009F938F9306E711E01F930F930E94B42E01
:1035C00063E080E00E940708C8010E9420138091F8
:1035D000B2018F938091B1018F938091B0018F934D
:1035E0008091AF018F9386EA90E09F938F931F9312
:1035F0000F930E94B42E64E080E00E940708C80187
:103600000E9420130FB6F894DEBF0FBECDBF80918D
:103610008E0190918F01892B99F480918E00909169
:103620008F00A091900089839A83AB8324E630E0D9
:1036300043E050E0BE016F5F7F4F80E70E940B2D9B
:1036400080918E0190918F01019690938F018093CC
:103650008E01C2CE84369105B9F580916906882322
:1036600009F442CF66E080E00E940708809175016E
:103670001F928F93809174011F928F9382EB90E041
:103680009F938F9306E711E01F930F930E94B42E30
:10369000C8010E94201360E080E00E94A612809181
:1036A00072011F928F9388EB90E09F938F931F93EB
:1036B0000F930E94B42EC8010E9420130FB6F894F5
:1036C000DEBF0FBECDBF10CF8C34944008F40CCFBA
:1036D00010928F0110928E0107CF609136076623FA
:1036E00009F423CF869921CF70E081E397E00E940F
:1036F0006B0C81111ACF1092360717CF80914302BD
:1037000081110FC003E311E093E5E92E91E0F92E5A
:10371000C8010E94A9070C5F1F4FE016F106C1F710
:1037200012C003E311E083E5E82E81E0F82EC80122
:103730000E94AA190C5F1F4FE016F106C1F7809195
:1037400043028823F9F203E311E0A3E5EA2EA1E0A6
:10375000FA2EBFE5CB2ED12CF8014181842F042E07
:10376000000C990B97FF03C0919581959109D801A1
:103770002C91280F392F311D13968C91682F70E0F2
:103780008034E8F4C901F5E0880F991FFA95E1F754
:103790000E94E52D2E3331051CF46E3171051CF1AC
:1037A000C8010E94AA19C8010E94A9070C5F1F4FF7
:1037B000E016F10689F6A896E2E10C94BE2DC6014A
:1037C000861B970B829FB001839F700D929F700D97
:1037D000112477FF02C0615C7F4FE6E07595679525
:1037E000EA95E1F7D7CFF801828187FF08C061959C
:1037F000628347FF06C02195F8012183D4CF6283FD
:10380000F8CFD80111962C93CECF80914302882314
:1038100099F082E390E09093700180936F0182E1D0
:1038200090E090936E0180936D018DE490E0909311
:103830006C0180936B01BFCF40916F01509170017B
:103840004C5F5F4F5093700140936F0120916D0169
:1038500030916E012D5F3F4F30936E0120936D01CB
:1038600080916B0190916C01019690936C01809313
:103870006B014836514020F01092700110926F0198
:103880002836314020F010926E0110926D0188367A
:10389000914020F010926C0110926B0162E080E583
:1038A0000E9407082091670630916806275632402B
:1038B000409165025091660260916402862E912CBF
:1038C000E5E0F0E001E010E0C901390171E2670EC6
:1038D000711C7C016FEFE61AF60A813074E09707DD
:1038E00010F080E094E0DC01A959BD4FBC90BB20F2
:1038F00089F01C9273E0969587957A95E1F78F7021
:103900009927B80102C0660F771F8A95E2F7CB01AD
:10391000462B592BC701E614F704D9F6280D391D9B
:10392000319791F6509366024093650200916B01C6
:1039300010916C01E0906D01F0906E01C0906F01EC
:10394000D0907001C6010E94E90B69877A878B8746
:103950009C87C6010E94A90B6D877E878F87988BF5
:10396000C7010E94E90B698B7A8B8B8B9C8BC701FB
:103970000E94A90B6D8B7E8B8F8B988FC8010E9444
:10398000E90B698F7A8F8B8F9C8FC8010E94A90BDE
:103990006D8F7E8F8F8F98A307E610E063E5262E4C
:1039A00061E0362ED80112966C91062E000C770B32
:1039B000880B990B0E9401334B015C01F801608177
:1039C000062E000C770B880B990B0E9401336B01BC
:1039D0007C01A50194016D897E898F89988D0E9453
:1039E0008D332B013C01A701960169897A898B8966
:1039F0009C890E948D339B01AC01C301B2010E94DE
:103A0000EA312B013C01A501940169897A898B89EE
:103A10009C890E948D334B015C01A70196016D8941
:103A20007E898F89988D0E948D339B01AC01C501E1
:103A3000B4010E94EB314B015C01D80111966C91ED
:103A4000062E000C770B880B990B0E94013369A39B
:103A50007AA38BA39CA39B01AC016D857E858F858A
:103A600098890E948D336B017C01A30192016985C5
:103A70007A858B859C850E948D339B01AC01C701A3
:103A8000B6010E94EA316B017C01A50194016D8DA4
:103A90007E8D8F8D98A10E948D336DA37EA38FA301
:103AA00098A7A7019601698D7A8D8B8D9C8D0E94B8
:103AB0008D339B01AC016DA17EA18FA198A50E94C1
:103AC000EA310E94C932F1016083A5019401698D38
:103AD0007A8D8B8D9C8D0E948D334B015C01A701EB
:103AE00096016D8D7E8D8F8D98A10E948D339B01E7
:103AF000AC01C501B4010E94EB310E94C932D10171
:103B000011966C9329A13AA14BA15CA169857A8594
:103B10008B859C850E948D336B017C01A3019201F2
:103B20006D857E858F8598890E948D339B01AC01C0
:103B3000C701B6010E94EB310E94C932F1016283D4
:103B40000D5F1F4FF3E02F0E311C6FE770E0601721
:103B5000710709F027CF42E6A42E43E0B42E5AE7BE
:103B6000652E53E0752EF50184913196E491F0E0D5
:103B7000DF01AA0FBB1FAE0FBF1FAD5ABE4F11967C
:103B80009C91119700E2402E490E9C9120E6522E06
:103B9000590E90E0FC01EE0FFF1FE80FF91FED5AE0
:103BA000FE4F0181005E1081105A401630F4802FC4
:103BB000042D482E812F152D582E912F9519511611
:103BC00010F0952D911B802F8419401610F0842D34
:103BD000801B482F50E0292F30E07A01EE0CFF1CAB
:103BE0006901CC0CDD1C1515B8F0981760F546017D
:103BF000841A950A4016E0F141E0602F812F0E945F
:103C000067070F5FC601880D991D97FC03C08E19C9
:103C10009F0911504C01EECF8917A0F54701821A78
:103C2000930A41E0602F812F0E9467071F5FC70141
:103C3000880D991D97FC3BC04C018C189D080F5FA7
:103C4000511678F715C04701821A930A113880F48B
:103C500041E0602F812F0E9467071150C701880D36
:103C6000991D97FC03C08C199D090F5F151540F431
:103C7000F2E0AF0EB11C6A147B0409F074CF9BCD47
:103C80004C01E4CF4601841A950A401688F341E0BE
:103C9000602F812F0E9467070F5FC601880D991D55
:103CA00097FC03C08E199F091F5F4C01EECF4C019A
:103CB000C7CF0F931F93CF93DF938B01C82FD0E013
:103CC0004AE066E771E0CE010E94722E86E791E03D
:103CD0000E94201360E08AE00E94A612B801CE0183
:103CE0000E948D13DF91CF911F910F9108958091C4
:103CF0004302882329F080918B0080932C01089542
:103D000060E086EB92E00E9439136FEF70E08091E3
:103D10008B000E94591E089560E081EE92E00E949F
:103D2000391362E370E080913C020E94591E0895AD
:103D300060E083EC92E00E94391362E370E08091CE
:103D400038020E94591E089560E08CEC92E00E94B7
:103D500039136FEF70E0809139020E94591E089567
:103D600060E088E592E00E9439136FE770E080918F
:103D70003F020E94591E089560E080E692E00E9492
:103D800039136AE070E0809140020E94591E089544
:103D900078941F921FB61F9211248F939F93AF9315
:103DA000BF938091720690917306A0917406B091B2
:103DB00075060196A11DB11D80937206909373063E
:103DC000A0937406B0937506BF91AF919F918F91A8
:103DD0001F901FBE1F9018959C014FB7F8948091BB
:103DE000720690917306A0917406B09175064FBF4C
:103DF000821B930B08952FB7F894809172069091CF
:103E00007306A0917406B09175062FBF0895AAE0BD
:103E1000B0E0EDE0FFE10C94A42D8E010F5F1F4F89
:103E20008AE0F80111928A95E9F79DEFE92E90E07A
:103E3000F92E680122E0422E21E0522E662463947E
:103E4000712C42E1842E41E0942EF70181917F0193
:103E50008F3F09F445C0F894E82FE295EF70F0E049
:103E600021A98F70A30102C0440F551F8A95E2F764
:103E7000CA01922F982B91AB92A98095892382AB8E
:103E8000789400C0E2E0F1E021E030E0B12CA12C18
:103E900041914F3F09F47EC0A42FA295AF70B0E0CE
:103EA000D0968C9190E04F7002C0959587954A9579
:103EB000E2F780FD6FC0C901A82AB92A220F331F7B
:103EC0008E169F0629F7F701319780818F3F11F0F9
:103ED0000E941D0850EA5A95F1F7F601B182A082BE
:103EE000F2E0CF0ED11C4E145F0409F0AECF4AE0D1
:103EF00050E0B80188E192E00E94A72EFF24F394DD
:103F0000009709F4F12C892B09F447C08AE0F801E5
:103F1000A8E1B2E001900D928A95E1F781E08093EB
:103F200013020E94FB1E9093120280931102809153
:103F30001102909112020E94EC1E059790F180915F
:103F4000180290911902909352028093510280912D
:103F50001A0290911B029093540280935302809115
:103F60001C0290911D0290935602809355028091FD
:103F70001E0290911F0290935802809357028091E5
:103F800020029091210290935A028093590210923C
:103F9000130207C090E080E08FCF8091130281115F
:103FA000C6CF80911602909117020E94EC1E853FA9
:103FB0009140C0F020911402309115024AE0429FD6
:103FC000C001439F900D11246DE070E00E948E2D82
:103FD00070931502609314020E94FB1E90931702C7
:103FE000809316028F2D2A96E0E10C94C02DA5E057
:103FF000B0E0EDEFFFE10C94A32D8C01FC01838177
:104000009481892B31F08081918189238F3F09F040
:104010003DC42596E1E10C94BF2D0E944011F82E7D
:10402000682F89819A810E94690A69817A818F2D1E
:104030000E9432117C01F8018281882309F418C49E
:10404000C70182519F45409708F04CC38FEF93E022
:104050000E944631811128C0FEEEEF0E57EA852EF0
:1040600052E0952EE11032C01C821B8244244394FE
:104070004AE0342E74018FEFE81AF80AC4010E9456
:10408000463189831A82882379F09FEF980F933005
:1040900058F58A83498292E0890E911CC7010E94DB
:1040A00046318B83811121C080910D02877009F404
:1040B000B0CFF8018281882309F4ABCF809123022D
:1040C00082FFA7CF82E00E94CA0AA3CF811424E016
:1040D000920651F3C4010E944631811101C0EA9455
:1040E0003FEF831A930ABECF4701FE0131967F014D
:1040F000F7012081222309F4BDCF213009F047C008
:1041000091818281913031F4F2E0EF0EF11C0E9436
:10411000181007C0923049F422E0E20EF11C0E9410
:104120003D0B3FEFE31AF30AE3CF933031F432E073
:10413000E30EF11C0E94080BF4CF943021F08FEFB6
:10414000E81AF80AEECF92E0E90EF11C30E020E028
:10415000B7016F5F7F4FF70141818053990B8A3020
:10416000910550F021503109E0F28FE99FE001976D
:10417000F1F700C00000F6CF329EF001339EF00D43
:1041800011249C012E0F3F1F842F7B01E1CFE22FD2
:10419000F0E0EC56FB4F5490822F869586958695DD
:1041A00090E0FC01EC57FB4F64902770712C022EBD
:1041B00002C0759467940A94E2F7E1E06E227724D6
:1041C000FC01EC58FB4FA490B12C022E02C0B59418
:1041D000A7940A94E2F7F1E0AF22BB24FC01EC596A
:1041E000FB4FC490D12C02C0D594C7942A95E2F716
:1041F00021E0C222DD246114710419F081EE0E94D5
:104200003D0BA114B10419F086EE0E943D0B852DE3
:104210000E941810A114B10419F086EE0E94080B38
:104220006114710419F081EE0E94080BC114D104CD
:1042300009F477CF8CE26BCF81E00E94E60A0E94FE
:10424000B10A32CF81E00E94BD0AF9CF82E0F5CFFA
:104250009CE5E9169DE5F90609F44AC008F454C046
:10426000F7EAEF16FDE5FF0609F0BAC20E948B16C9
:104270000995882309F418CF1DC08823A9F0F801F7
:104280008081911104C0811105C08FEF0BC0811195
:1042900001C09150292F2295207F90FD10C0281B2E
:1042A000822F815F80934802E091B301F091B401C5
:1042B000309739F4F801828181117FC291C2820F57
:1042C000F1CFB801C7010995D4CF109224020E9402
:1042D0008116FFEF24E33CE0F15020403040E1F74D
:1042E00000C000000E940F07DFCE0E94A116BECFC3
:1042F0008091230282FB882780F991E089270E9420
:10430000CB106EC281E0FBCF80E0F9CFC7010E94E5
:10431000350AD82E74C22F2D2F70C22E8F2D807F7C
:1043200019F0C29490EFC922DD20B9F0CC2069F0D9
:1043300080E28E0D883010F0811009C08091240237
:10434000C82AC09224020E94010A8E2D4CC080917E
:104350000E02C82AC0920E02F6CF8E2D0E94080BC4
:10436000CC2009F442C080E28E0D883010F081101C
:1043700004C08C2D0E94FA0906C0C09480910E02E0
:10438000C822C0920E020E94010A2FC03F2D3F702A
:10439000C32E8F2D807F803219F0C29480EFC82207
:1043A000882089F081E0881609F468C0DD2009F4CE
:1043B00072C0BB2009F468C0F801858180FFC5CFB9
:1043C0008F70858361C02091230222FD35C0DD20DE
:1043D00069F1CC2039F080912402C82AC0922402CD
:1043E0000E94010A80E00E943D0B292D2850330BCA
:1043F0002430310510F40E945A07AA2009F409CE8E
:1044000080910D0280FD05CEF8011282859585957B
:1044100085950E94E60AC8010E94F71F80910D024F
:104420008595859585950E94BD0AF3CD80E00E9413
:10443000080BCC20D1F29DCFDD2099F090910F0296
:10444000892F8C29B11003C00E94FE0ACECFE1E073
:10445000BE12FACF22FFC9CF981739F280930F020C
:10446000C4CFB11006C00E94F4098C2D0E94F70A37
:10447000BCCFF1E0BF1609F4B8CFF5CFDD2031F0A5
:1044800025E02B1508F4B1CF8C2DDECF34E03B15A1
:1044900008F4ABCFEACFBB2041F3F9E38F1217C189
:1044A0002FEF37EE83E0215030408040E1F700C02D
:1044B00000008E2D0E94080B98CF8F2D8695869533
:1044C000837061F0813009F090CFC7019370D110F3
:1044D00002C090E080E00E942E0787CFC701937052
:1044E000D11002C090E080E00E9444077ECF8F2D63
:1044F000837091F5D11079CF4E2D42954695477036
:10450000440F440F8E2D8F70042E01C0880F0A9423
:10451000EAF72E2D2071E4FE07C02FE030E001C045
:10452000220F4A95EAF720953F2D36953695337040
:10453000323069F050F440911002313029F0822B72
:1045400084230E94F20A51CF842B822BFACF282B8E
:10455000809110028227F5CF8695DD2011F08F2DF6
:104560008170882309F441CF4E2D429546954770BE
:10457000440F440F8E2D8F70042E01C0880F0A94B3
:10458000EAF72E2D2071E4FE07C02FE030E001C0D5
:10459000220F4A95EAF720953F2D369536953370D0
:1045A000323069F050F440913007313029F0822BDD
:1045B00084230E94AC0A19CF842B822BFACF282B9C
:1045C000809130078227F5CF2F2D2F70F22EDD201E
:1045D00029F0822F0E94E60A8E2D36CF8E2D0E9462
:1045E000F70A8F2D0E94BD0A00CF8E2D32EF831661
:1045F000B1F1381570F090EF8916D1F0E1EF8E1619
:1046000091F0DD2009F45EC0B1109FCE8F2D8F7127
:104610002AC0F3EF8F1651F124EF8212F2CF80916E
:10462000230282FD2FC08F2D8F71DD20D9F21BC098
:10463000DD2081F034E03B1508F4D7CE2F2D2F710B
:1046400081E090E001C0880F2A95EAF79091300749
:104650008927AFCF85E08B1508F4C7CEEFCF8F2D1C
:104660008F71D110BFCF0E94E60ABFCE80E0DD205F
:1046700009F49FCF9F2D9F7181E001C0880F9A950B
:10468000EAF797CFDD2099F09F2D9F71F92E892FA2
:104690000E94E60A8091230282FF07C0E8E0FE9EA6
:1046A000C0011124836080930D028F2DDCCF81E047
:1046B0000E94CA0AF1E0FB1508F097CE82E00E9442
:1046C000CA0A93CEBB2059F0893309F4E9CE9FEF93
:1046D000E3EFF1E09150E040F040E1F7E8CE8F2DBC
:1046E0008F7180CFF0E1EF16FFE5FF0609F4A4CD4E
:1046F00021E1E2162FE5F20609F4A8CD8091AF0181
:104700009091B001A091B101B091B2010196A11DAB
:10471000B11D8093AF019093B001A093B101B0930C
:10472000B2018091160290911702009729F10E9420
:10473000EC1E20911402309115024AE0429F600164
:10474000439FD00C11249C0150E040E060E67AEEDB
:1047500080E090E00E948731CA01B9016C0D7D1D97
:10476000811D911D2DE030E040E050E00E94873136
:1047700030931502209314020E94FB1E909317029F
:10478000809316020E9422076093490270934A02A6
:1047900080934B0290934C02F80191818281911198
:1047A0006CCD2081211169CD8823D1F0E091B50134
:1047B000F091B601309709F05BCDFAE5EF16FDE513
:1047C000FF0609F49FCD08F043CDE1143CE5F30664
:1047D00009F47BCD8EEDE8168CE5F80609F485CD5D
:1047E000F8018281E080F180882309F48FCDC70130
:1047F0000E944011D82E682FC7010E94690AB70194
:104800008D2D0E9432110E9477087C01882EF801BC
:10481000D280B580B2943FE0B32280910D028770C0
:10482000C1F0AD2CDD20B1F08F2D807F803421F0E0
:1048300080E28E0D883068F08091230282FF09C0EB
:1048400082E00E94CA0A80910D028770AA24A39474
:104850008111A12C9F2C92942FE09222FBE0F9155C
:1048600008F4C3CDE92DF0E0E35FFB4C0C94F92D87
:1048700030E1E3163FE5F30609F4E4CC81E1E81604
:104880008FE5F80609F07ECF82E0DDCC85E0DE0121
:10489000119601900D928A95E1F7F80122818981A4
:1048A0009A812111BACB0E94350AF82EBECB1F93F4
:1048B000CF93DF938091DA01807F09F049C0809126
:1048C000D701882309F444C080910C02D091DB0108
:1048D0006091D5017091D601A091D801B091D90114
:1048E000C62FC72316E0D81799F190E0109711F062
:1048F000CF3F19F401968770F6CF189F9001199F4A
:10490000300D1124F901E452FE4F41814713F2CFDB
:1049100040814613EFCF42814111ECCF4381548156
:104920004A1B5B0B483C510528F78091DA018F70D8
:1049300080618093DA01F901EF51FE4F80818F7021
:104940008061808385ED91E00E94F71F0E942B0A11
:10495000DF91CF911F910895A1E1B0E0E2EBF4E285
:104960000C94AA2D8C0185E0F801DE011D960190C2
:104970000D928A95E1F7F801E28085EDA82E81E09D
:10498000B82E6091D8017091D9016115710509F4B3
:1049900026C19091D5014091D601892F84238F3F64
:1049A00009F41DC120813181C380D480F090D701EA
:1049B000F601E61BF70BFF2009F4DCC08091DA0159
:1049C000582F507FE83CF10508F09FC051116BC093
:1049D000FE2C431314C0921312C0E11010C08F704C
:1049E00080618093DA01C5010E94F71F8091DA018E
:1049F000F80185838F2D6196EAE00C94C62DC114D1
:104A0000D10429F0822F83238F3F09F003C180E076
:104A1000F82FF170DF2E80FF3CC080910C02409196
:104A2000DB0156E0841315C02D873E878D859E855A
:104A30000E946F11292F22952F702230F0F0243020
:104A400018F59F70F1F0F8019581907FD1F4D12C89
:104A50001EC090E0589FF001599FF00D1124E452C0
:104A6000FE4F6181361306C06081261303C0628148
:104A7000E6120FC001968770D5CF9F7011F0882382
:104A800031F3805E883018F3C8010E94F71FFD2CB7
:104A9000B1CFEE2009F4AECF8091DA01816080932E
:104AA000DA01F12CA7CF431306C0921304C0F8011A
:104AB000EE2009F479C0C8010E947C11882309F115
:104AC000EE20F9F08091DA01803270F02091D5016A
:104AD0003091D60138872F831986DB86CA868C876A
:104AE000CE0107960E94F71F86E0F801A5EDB1E020
:104AF00001900D928A95E1F70E945724FF24F394C8
:104B000079CFC8010E94F71FF9CF51110AC085ED76
:104B100091E00E94F71F86E0F50111928A95E9F76E
:104B2000C0CF43130FC092130DC0E1100BC0F801AA
:104B30008583C8010E94F71F86E0F50111928A95CE
:104B4000E9F758CFC8010E947C118823D1F2EE20EA
:104B5000C1F28091DA01803238F22091D501309192
:104B6000D6013A8329831B82DD82CC828E83CE01DB
:104B70000196B8CFE83CF105F8F6FE2CEE2009F2DC
:104B800043131FC092131DC08091DA0180FD10C035
:104B9000982F907F69F0F8018583903F31F0982F2E
:104BA000907F905F8F70892B8583C8010E94F71FCB
:104BB00086E0F801A5EDB1E001900D928A95E1F74C
:104BC00019CFC8010E947C1181118ECF8091DA012A
:104BD00081608093DA01C8010E94F71F0BCFEE209D
:104BE00009F48FCFC8010E947C11F82E882309F4A4
:104BF00088CF86E0F801A5EDB1E001900D928A958D
:104C0000E1F78091D5019091D6010E946F110E9429
:104C10005724F0CE81E08E25FBCEA7E1B0E0E3E1A2
:104C2000F6E20C94B12D4B8B5C8B6D8B7E8B8F8B56
:104C3000611110920E021A8A198A85E0FE0173969C
:104C4000DE011D9601900D928A95E1F786E0FE0146
:104C50003D96DE01179601900D928A95E1F7CE01FF
:104C600007960E94AC24882359F016E080910C022C
:104C70009091DB01891345C06796E3E00C94CD2D3C
:104C800086E0FE013796DE01119601900D928A951D
:104C9000E1F78A859B85892B41F38F81988589234C
:104CA0008F3F19F32091DB0130E0C9010196877035
:104CB000992740910C024817190681F4109224029A
:104CC0000E9481161092DB0110920C0286E0E5ED45
:104CD000F1E0DF011D928A95E9F7C7CF96E0929F38
:104CE000D001939FB00D1124A452BE4FFE01319606
:104CF00001900D929A95E1F78093DB010E942B0AB7
:104D0000B4CF819FC001112484529E4F0E94AC24D5
:104D1000882309F4B1CF80910C0290E0019687704E
:104D2000992780930C02A2CF0F931F93CF93DF9309
:104D3000D62F811158C00E942207609349027093B8
:104D40004A0280934B0290934C020091AD01109166
:104D5000AE010115110509F43EC08091AB0190919F
:104D6000AC010E94EC1E883C910550F580916500D5
:104D7000909166008017910728F402969093660040
:104D80008093650000916500109166000150110943
:104D9000D0F40E94FB1E9093AC018093AB01CC2316
:104DA00049F045E0D11146E064E080E00E94031143
:104DB0000E9418108C2FDF91CF911F910F910895B1
:104DC00081E090E0DBCFE091A901F091AA018D2F65
:104DD0000995C82FDBCFE091A901F091AA018D2F91
:104DE0000995C82FDCCFC1E0E5CFCDB7DEB7CA54F7
:104DF000D1090FB6F894DEBF0FBECDBF84B780686F
:104E000084BF84B7806884BF0E94FB1E90935D02BC
:104E100080935C028BE198E09093230180932201C0
:104E200085B7886085BF8BB780688BBF8BE4809324
:104E300043078093780780934F078AE58093420762
:104E40008093770780934E078B9A80E0815009F01A
:104E500099C18B9878948BE083BF8AEF8CBF82E0F6
:104E600089BF0E949C11811102C00E94BB100DEFEE
:104E700010E0F80181918F018F3F11F00E941D0811
:104E8000F1E002301F07A9F702E011E072E1E72E1E
:104E900071E0F72ED8018D918D018F3F11F00E94A6
:104EA0001D08E016F106B1F78AE0E1E5F2E0DF0166
:104EB000282F1D922A95E9F7E8E1F2E0DF011D9223
:104EC0008A95E9F790E080E00E944E31883E9E4F3F
:104ED00021F40E949C11811102C00E94A11682E05F
:104EE00090E00E9446318093250284E090E00E9489
:104EF0004631182F82E290E00E944631982F812F90
:104F000090932302809322020E94071FEFE3FCE9A3
:104F10003197F1F700C000000E94071F80915102F5
:104F200080FF08C06FEF7FEF90E080E00E9471315A
:104F30000E940F0783E090E00E9446310E94F20A2F
:104F400080E8809364020E94292C6AE170E084E189
:104F500095E00E94900C892B39F40E94DA1381E0CD
:104F600080936B068093690681E080933202BE983D
:104F7000C69ABD98C59A8FE891E00197F1F700C0F5
:104F800000002091320243E352E0FA018E2F841B8D
:104F9000821708F4FFC00E941514E7E6F0E02FE73F
:104FA00030E09AE08081899F802D11248083818167
:104FB000899F802D112481838281899F802D1124D6
:104FC000828333962E173F0769F78FE790E090931F
:104FD0006F0680936E069FEFA0E7B2E09150A0406D
:104FE000B040E1F700C0000058EE452E53E0552ECA
:104FF000612C712C88248394912C7E01E1E4EE0EC7
:10500000F11C80915D0710915B02882309F4CEC0EA
:1050100010925D070E94FB1E90935D0280935C02DC
:10502000112361F010925B02109224020E948116FB
:105030000E945A0780915B028111BAC00E941D0E26
:1050400080912807882309F480C08091420784FF5B
:105050007CC00E94FB1E5C010E94071F81110E9400
:105060002207A1E5B2E0E6E2F2E010E000E0602F06
:105070008D919D91219131912817390709F4BDC077
:105080002827392770E0CC24C394D12CA9014C21C6
:105090005D21452B09F4ABC0D7017C9311966C932D
:1050A0009C012C213D2191E0232B09F490E0F70194
:1050B00092830E94FB1E8160782FD70114969C93E7
:1050C0008E9313974C9123965FAD239724966FADE3
:1050D000249726968FAD26970E940D26000F111F4C
:1050E000F801EA5DFD4F80819181C826D926D182E1
:1050F000C082312C212C80913202381608F4A4C0D1
:1051000021100E942207C5010E94EC1E892BB1F4D8
:1051100080916B06882391F080914E0290914F020E
:105120000E94EC1EC29708F0DFC02091650230910A
:10513000660280E02115310509F089C10E945A07F5
:10514000909150028913809350020E94BD0F0E94DB
:105150001D0E80912807882309F453CF80914E07B4
:1051600084FF4FCF80911E07803209F04ACFE09133
:10517000FE06E150E33108F0DEC1F0E0E75EFB4CF3
:105180000C94F92DA895AFE9BFE01197F1F700C095
:1051900000005CCE86B386FB882780F9B59904C0F1
:1051A00090E0892B8193F2CE92E0FBCF112381F026
:1051B0000E94E50C0E94071FE1E5F2E081919191C8
:1051C000892B09F021C322E0EB35F207B9F719CF9B
:1051D00080915C0290915D020E94EC1E069708F49B
:1051E0002DCF81E080935B020E94E50C23CF7F5F8F
:1051F000CC0CDD1C703109F049CF0F5F1F4F05301B
:10520000110509F034CF8FEF27968FAF2797289697
:105210008FAF289729961FAE29970E94FB1E8160A9
:10522000782F2B969FAF8EAF2B9727964FAD279752
:1052300028965FAD289729966FAD29972B968FAD4D
:105240002B970E940D2655CF032D10E0E6B3E6FB09
:10525000EE27E0F9B59946C080E08E2BD801AD5C11
:10526000BD4FEC919E2F93708917D1F1EE0FEE0F89
:10527000E82BEC93EF70F0E0EE5EFE4FC8018F5C20
:105280009D4F6C018081D6019C91890F8C9320E009
:1052900084305CF0F801E05DFD4F80818F5F80839A
:1052A00060E0832D0E94942621E0F60180818D3FED
:1052B0005CF4F801E05DFD4F80818150808361E006
:1052C000832D0E94942621E0D6018C91082E000C9B
:1052D000990B64E070E00E94E52DF6018083222A9C
:1052E000339409CF82E0B9CF0E94FB1E90934F0206
:1052F00080934E0260E080E00E94070810914D020A
:10530000A0904902B0904A02C0904B02D0904C024B
:10531000112391F0C5010E94EC1E68EE73E00E941B
:105320008E2D1617170640F40E94151480916B06F7
:10533000882309F403CFF9CE0E9422076A197B095A
:105340008C099D09A30192010E94B93189018091C4
:105350006906882359F1E0913602EE2339F1F0E035
:10536000EE0FFF1FE25DFA4F85919491821793072C
:10537000E8F40E94E50C809148028F3F79F080911B
:105380006906811102C00E94000D809147028823A6
:1053900009F44AC0109247020E94960DE09144021F
:1053A000F0914502099510924302C0CF80914702C7
:1053B00081111BC0E0913D02EE23B9F0F0E0EE0F49
:1053C000FF1FE25DFA4F859194918017910768F471
:1053D00060E083E00E942B0D892B39F481E08093FB
:1053E00047028FEF80934802D9CF80914602811106
:1053F000C2CFE0914102EE2309F4BDCFF0E0EE0F01
:10540000FF1FE25DFA4F859194918017910708F094
:10541000B2CF60E084E10E942B0D892B09F0ABCF65
:1054200081E080934602DDCF80914602882329F0F7
:10543000109246020E94FB0DB1CF6091480289E0B4
:105440000E942B0D892B09F0A9CFCBCF8F5F082F9E
:1054500010E06401082E02C0CC0CDD1C0A94E2F7B7
:10546000A9014C215D21452B89F380550E949012A2
:1054700082E10E94901280E00E9490129E012F5FB4
:105480003F4FC80153E0880F991F5A95E1F789599A
:105490009D4F8901085F1F4FF80140E8B42E12921A
:1054A000DC0150E040E06D916B2149F0A080B40137
:1054B000042E01C0660F0A94EAF76A2960834F5FE1
:1054C0005F4F4830510579F7B694E217F30739F783
:1054D00080589F4F98010E151F05D9F604E610E07D
:1054E00020E430E0AE014F5F5F4F60E488E70E9448
:1054F000652D892B09F022CE0E94000DC094D09416
:105500008091650290916602C822D922D0926602EB
:10551000C092650213CE1092FF068BE080930007C5
:1055200013C08091FF068330F9F048F4813079F0A0
:10553000823009F483C18FEF8093FE0605C084306A
:1055400009F44AC08530B9F70EEF16E03CC10E945D
:1055500022070E94FF2D609300077093010780933C
:10556000020790930307F0CF80915102909152026D
:1055700098278927982790930107809300078091A7
:1055800053029091540298278927982790930307F4
:10559000809302078091550290915602982789279F
:1055A0009827909305078093040780915702909164
:1055B0005802982789279827909307078093060712
:1055C0008091590290915A029827892798279093A1
:1055D000090780930807B8CF1092000783E08093F3
:1055E000010780E6809302078FE180930307ACCF29
:1055F0008091FF06823009F09ECF60910007709184
:10560000010780910207909103070E94FF2D86E217
:1056100090E00E94543198CF4091010760910007BB
:105620008091FF060E94031198278927982790935D
:1056300003078093020788CF209102073091030768
:10564000322723273227409101076091000780917C
:10565000FF060E94441078CF0E946A1075CF80E147
:105660008093FF0671CF81E08093FF0689E556CFD6
:105670000091FF06109100071027012710273EEF29
:10568000A32E36E0B32EC0900107D12CC601825064
:10569000994F6C01C80189559D4FAC14BD0409F4A4
:1056A00053CF0935A1E01A0750F40E944631F501A5
:1056B00084830F5F1F4FBFEFAB1ABB0AEBCFD5013F
:1056C00014961C92F6CFC090FF06D0900007DC2401
:1056D000CD24DC242EEFA22E26E0B22E009101076D
:1056E0000C0D1D2D111DC60189559D4F0C151D0555
:1056F00009F42ACFE9E5CE16E1E0DE0628F4D5016B
:1057000014966C910E945431BFEFAB1ABB0AEFEFB5
:10571000CE1ADE0AE8CF0E94341016CF84E0A0CF64
:105720000091FF06109100071027012710279EEF18
:10573000A92E96E0B92EC0900107D12CC601825047
:10574000994F6C01C8018796AC14BD0409F4FCCED6
:105750000038A2E01A0750F40E944631F501848314
:105760000F5F1F4FBFEFAB1ABB0AECCFD5011496EA
:105770001C92F6CFC090FF06D0900007DC24CD2409
:10578000DC248EEFA82E86E0B82E009101070C0DC8
:105790001D2D111DC60187960C151D0509F4D4CECB
:1057A000E0E8CE16E2E0DE0628F4D50114966C910E
:1057B0000E945431BFEFAB1ABB0AEFEFCE1ADE0ADC
:1057C000E9CF0E941D0E80914E0784FFFACF4EE470
:1057D00057E068E0C8010E94670F085F1F4FF7E0BD
:1057E0000E311F0781F780914E0784FF0AC04EE4F7
:1057F00057E060E090E080E00E94670F10921E0783
:1058000000CC0E941D0EEFCFF89421B3939A822F03
:105810008C6081BB92B33CE0932792BB4FE788E357
:1058200091E0415080409040E1F700C0000082B319
:10583000832782BB21BB93987894E3CB86E290E0E8
:105840000E94463110920007109201071092020741
:10585000CCCE11B88CE080B985B3836085BB86B7A8
:10586000846086BF86B7816086BF86B7806486BF46
:105870000895B0E0A0E0EFE3FCE20C94A92DB82E6F
:10588000EB010E94FB1E6C01EE24E394F12CC43169
:10589000D10560F025E0E22EF12CCF3FDC0731F09E
:1058A000CE0164E170E00E948E2D7B0184EAA82E77
:1058B00094E8992E16BEA6BE0E94FB1E8C0106B669
:1058C00007FE0BC081B1887F8830F9F081B1887FF5
:1058D0008031D9F00FEF1FEF09C00E94FB1E801B23
:1058E000910B8E159F0558F30EEF1FEFCF3FDC078E
:1058F00009F3C6010E94EC1E8C179D07D8F2C8015F
:10590000CDB7DEB7EBE00C94C52DB3B896BE0E94C0
:10591000FB1E8C0106B607FE09C081B1887F883165
:1059200011F08034B9F610E000E0E9CF0E94FB1ED0
:10593000801B910B8E159F0568F3D6CF0F931F9395
:10594000CF93DF93EB0183B984E886BF0E94FB1EEF
:105950008C0106B607FE10C021B1287F81E090E0DF
:10596000283211F490E080E0919581959109DF91C2
:10597000CF911F910F910895CF3FDC0751F30E9403
:10598000FB1E801B910B8C179D0718F38EEF9FEF6A
:10599000EECF0F931F93CF93DF93EC0184EC86BF80
:1059A0000E94FB1E8C0106B607FE07C083B190E083
:1059B000DF91CF911F910F910895CF3FDC0799F3AD
:1059C0000E94FB1E801B910B8C179D0760F38EEFCE
:1059D0009FEFEECF0F931F93CF93DF93EC0184E8FB
:1059E00086BF0E94FB1E8C0106B607FE07C083B16E
:1059F00090E0DF91CF911F910F910895CF3FDC0789
:105A000099F30E94FB1E801B910B8C179D0760F37E
:105A10008EEF9FEFEECFB0E0A0E0E1E1FDE20C946D
:105A2000AC2D6B018A017901B9010E94392CE60184
:105A30000C0D1D1DC017D10711F097FF07C024E9F9
:105A400026BFCDB7DEB7E8E00C94C82DB701899129
:105A50000E949E2CEFCFB0E0A0E0E1E3FDE20C94C9
:105A6000AC2DEB018A016901B90181600E94392CDA
:105A7000F12CE12C01501109E016F106D8F497FF42
:105A80000CC024E926BF1816190614F490E080E033
:105A9000CDB7DEB7E8E00C94C82DC6010E94C92C32
:105AA00097FD04C0FE01EE0DFF1D80832FEFE21A6B
:105AB000F20AE2CF97FDE5CFC6010E94EA2C97FDDE
:105AC000E0CFC00FD11F8883DCCFB0E0A0E0EBE6D1
:105AD000FDE20C94AC2DC62F6A017901B8010E9439
